{
  "_format": "hh-sol-artifact-1",
  "contractName": "EvidenceValidator",
  "sourceName": "contracts/EvidenceValidator.sol",
  "abi": [
    {
      "inputs": [
        {
          "internalType": "address",
          "name": "_tokenContract",
          "type": "address"
        },
        {
          "internalType": "address",
          "name": "_evidenceStorage",
          "type": "address"
        }
      ],
      "stateMutability": "nonpayable",
      "type": "constructor"
    },
    {
      "anonymous": false,
      "inputs": [
        {
          "indexed": true,
          "internalType": "address",
          "name": "submitter",
          "type": "address"
        },
        {
          "indexed": true,
          "internalType": "bytes32",
          "name": "evidenceHash",
          "type": "bytes32"
        },
        {
          "indexed": false,
          "internalType": "bool",
          "name": "isValid",
          "type": "bool"
        }
      ],
      "name": "EvidenceValidated",
      "type": "event"
    },
    {
      "anonymous": false,
      "inputs": [
        {
          "indexed": true,
          "internalType": "address",
          "name": "submitter",
          "type": "address"
        },
        {
          "indexed": true,
          "internalType": "bytes",
          "name": "signature",
          "type": "bytes"
        },
        {
          "indexed": false,
          "internalType": "bool",
          "name": "isVerified",
          "type": "bool"
        }
      ],
      "name": "SignatureVerified",
      "type": "event"
    },
    {
      "inputs": [],
      "name": "addressEvidenceStorage",
      "outputs": [
        {
          "internalType": "address",
          "name": "",
          "type": "address"
        }
      ],
      "stateMutability": "view",
      "type": "function"
    },
    {
      "inputs": [
        {
          "internalType": "bytes32",
          "name": "_evidenceHash",
          "type": "bytes32"
        }
      ],
      "name": "getCreateAtFromEvidenceStorage",
      "outputs": [
        {
          "internalType": "uint256",
          "name": "",
          "type": "uint256"
        }
      ],
      "stateMutability": "view",
      "type": "function"
    },
    {
      "inputs": [
        {
          "internalType": "bytes32",
          "name": "_evidenceHash",
          "type": "bytes32"
        }
      ],
      "name": "isEvidenceValid",
      "outputs": [
        {
          "internalType": "bool",
          "name": "",
          "type": "bool"
        }
      ],
      "stateMutability": "view",
      "type": "function"
    },
    {
      "inputs": [
        {
          "internalType": "bytes32",
          "name": "_evidenceHash",
          "type": "bytes32"
        },
        {
          "internalType": "bytes",
          "name": "_signature",
          "type": "bytes"
        }
      ],
      "name": "isSignatureValid",
      "outputs": [
        {
          "internalType": "bool",
          "name": "",
          "type": "bool"
        }
      ],
      "stateMutability": "view",
      "type": "function"
    },
    {
      "inputs": [],
      "name": "tokenContract",
      "outputs": [
        {
          "internalType": "contract IToken",
          "name": "",
          "type": "address"
        }
      ],
      "stateMutability": "view",
      "type": "function"
    },
    {
      "inputs": [
        {
          "internalType": "bytes32",
          "name": "_evidenceHash",
          "type": "bytes32"
        },
        {
          "internalType": "bytes",
          "name": "_signature",
          "type": "bytes"
        }
      ],
      "name": "validateEvidence",
      "outputs": [
        {
          "internalType": "bool",
          "name": "",
          "type": "bool"
        }
      ],
      "stateMutability": "nonpayable",
      "type": "function"
    },
    {
      "inputs": [
        {
          "internalType": "bytes32",
          "name": "",
          "type": "bytes32"
        }
      ],
      "name": "validatedEvidence",
      "outputs": [
        {
          "internalType": "bool",
          "name": "",
          "type": "bool"
        }
      ],
      "stateMutability": "view",
      "type": "function"
    }
  ],
  "bytecode": "0x608060405234801561001057600080fd5b506040516108e83803806108e883398101604081905261002f9161007c565b600080546001600160a01b039384166001600160a01b031991821617909155600180549290931691161790556100af565b80516001600160a01b038116811461007757600080fd5b919050565b6000806040838503121561008f57600080fd5b61009883610060565b91506100a660208401610060565b90509250929050565b61082a806100be6000396000f3fe608060405234801561001057600080fd5b506004361061007d5760003560e01c806355a373d61161005b57806355a373d6146100f857806381702d551461010b578063b08c013b1461011e578063f03b29031461013157600080fd5b80630892beb71461008257806333150006146100aa5780633a0e2bfd146100cd575b600080fd5b610095610090366004610656565b610152565b60405190151581526020015b60405180910390f35b6100956100b8366004610711565b60026020526000908152604090205460ff1681565b6001546100e0906001600160a01b031681565b6040516001600160a01b0390911681526020016100a1565b6000546100e0906001600160a01b031681565b610095610119366004610711565b610182565b61009561012c366004610656565b6101a7565b61014461013f366004610711565b610370565b6040519081526020016100a1565b6000336101608185856103e7565b5060006101776001600160a01b03831686866103e7565b925050505b92915050565b600060018161019084610370565b90508161019d824261072a565b1015949350505050565b60008281526002602052604081205460ff16156102175760405162461bcd60e51b815260206004820152602360248201527f45766964656e63652068617320616c7265616479206265656e2076616c6964616044820152621d195960ea1b60648201526084015b60405180910390fd5b6102218383610152565b6102615760405162461bcd60e51b815260206004820152601160248201527014da59db985d1d5c99481a5b9d985b1a59607a1b604482015260640161020e565b600061026c84610182565b9050806102b55760405160008152849033907fda3a0b10df46bb754238bfd7c5c0213d2dcc3de6450d0a518b53bf77075d39849060200160405180910390a3600091505061017c565b6000546040516312c9dfb160e31b81523360048201526001600160a01b039091169063964efd8890602401600060405180830381600087803b1580156102fa57600080fd5b505af115801561030e573d6000803e3d6000fd5b505050600085815260026020908152604091829020805460ff19166001908117909155915191825286925033917fda3a0b10df46bb754238bfd7c5c0213d2dcc3de6450d0a518b53bf77075d3984910160405180910390a35060019392505050565b6001546040516316f6ee7360e21b8152600481018390526000916001600160a01b0316908190635bdbb9cc90602401602060405180830381865afa1580156103bc573d6000803e3d6000fd5b505050506040513d601f19601f820116820180604052508101906103e0919061074b565b9392505050565b60008060006103f68585610449565b509092509050600081600381111561041057610410610764565b14801561042e5750856001600160a01b0316826001600160a01b0316145b8061043f575061043f868686610496565b9695505050505050565b600080600083516041036104835760208401516040850151606086015160001a61047588828585610571565b95509550955050505061048f565b50508151600091506002905b9250925092565b6000806000856001600160a01b031685856040516024016104b892919061079e565b60408051601f198184030181529181526020820180516001600160e01b0316630b135d3f60e11b179052516104ed91906107d8565b600060405180830381855afa9150503d8060008114610528576040519150601f19603f3d011682016040523d82523d6000602084013e61052d565b606091505b509150915081801561054157506020815110155b801561043f57508051630b135d3f60e11b90610566908301602090810190840161074b565b149695505050505050565b600080807f7fffffffffffffffffffffffffffffff5d576e7357a4501ddfe92f46681b20a08411156105ac5750600091506003905082610636565b604080516000808252602082018084528a905260ff891692820192909252606081018790526080810186905260019060a0016020604051602081039080840390855afa158015610600573d6000803e3d6000fd5b5050604051601f1901519150506001600160a01b03811661062c57506000925060019150829050610636565b9250600091508190505b9450945094915050565b634e487b7160e01b600052604160045260246000fd5b6000806040838503121561066957600080fd5b82359150602083013567ffffffffffffffff8082111561068857600080fd5b818501915085601f83011261069c57600080fd5b8135818111156106ae576106ae610640565b604051601f8201601f19908116603f011681019083821181831017156106d6576106d6610640565b816040528281528860208487010111156106ef57600080fd5b8260208601602083013760006020848301015280955050505050509250929050565b60006020828403121561072357600080fd5b5035919050565b8181038181111561017c57634e487b7160e01b600052601160045260246000fd5b60006020828403121561075d57600080fd5b5051919050565b634e487b7160e01b600052602160045260246000fd5b60005b8381101561079557818101518382015260200161077d565b50506000910152565b82815260406020820152600082518060408401526107c381606085016020870161077a565b601f01601f1916919091016060019392505050565b600082516107ea81846020870161077a565b919091019291505056fea26469706673582212208db7db2b885e810dbb148c0e017eb3f99518f5367279009fcd76f28059efa2e864736f6c63430008140033",
  "linkReferences": {},
  "deployedLinkReferences": {}
}