{
  "_format": "hh-sol-artifact-1",
  "contractName": "EvidenceStorage",
  "sourceName": "contracts/EvidenceStorage.sol",
  "abi": [
    {
      "inputs": [
        {
          "internalType": "address",
          "name": "_owner",
          "type": "address"
        }
      ],
      "stateMutability": "nonpayable",
      "type": "constructor"
    },
    {
      "anonymous": false,
      "inputs": [
        {
          "indexed": true,
          "internalType": "address",
          "name": "submitter",
          "type": "address"
        },
        {
          "indexed": true,
          "internalType": "bytes32",
          "name": "evidenceHash",
          "type": "bytes32"
        },
        {
          "indexed": true,
          "internalType": "bytes",
          "name": "_signature",
          "type": "bytes"
        },
        {
          "indexed": false,
          "internalType": "uint256",
          "name": "createAt",
          "type": "uint256"
        }
      ],
      "name": "EvidenceSubmitted",
      "type": "event"
    },
    {
      "anonymous": false,
      "inputs": [
        {
          "indexed": true,
          "internalType": "address",
          "name": "oldOwner",
          "type": "address"
        },
        {
          "indexed": true,
          "internalType": "address",
          "name": "newOwner",
          "type": "address"
        }
      ],
      "name": "OwnerSet",
      "type": "event"
    },
    {
      "inputs": [
        {
          "internalType": "address",
          "name": "newOwner",
          "type": "address"
        }
      ],
      "name": "changeOwner",
      "outputs": [],
      "stateMutability": "nonpayable",
      "type": "function"
    },
    {
      "inputs": [
        {
          "internalType": "uint256",
          "name": "",
          "type": "uint256"
        }
      ],
      "name": "evidenceHashList",
      "outputs": [
        {
          "internalType": "bytes32",
          "name": "",
          "type": "bytes32"
        }
      ],
      "stateMutability": "view",
      "type": "function"
    },
    {
      "inputs": [
        {
          "internalType": "bytes32",
          "name": "",
          "type": "bytes32"
        }
      ],
      "name": "evidences",
      "outputs": [
        {
          "internalType": "address",
          "name": "submitter",
          "type": "address"
        },
        {
          "internalType": "uint256",
          "name": "createAt",
          "type": "uint256"
        },
        {
          "internalType": "bytes",
          "name": "signature",
          "type": "bytes"
        }
      ],
      "stateMutability": "view",
      "type": "function"
    },
    {
      "inputs": [],
      "name": "getAllEvidenceHashes",
      "outputs": [
        {
          "internalType": "bytes32[]",
          "name": "",
          "type": "bytes32[]"
        }
      ],
      "stateMutability": "view",
      "type": "function"
    },
    {
      "inputs": [
        {
          "internalType": "bytes32",
          "name": "evidenceHash",
          "type": "bytes32"
        }
      ],
      "name": "getCreateAtFromHash",
      "outputs": [
        {
          "internalType": "uint256",
          "name": "",
          "type": "uint256"
        }
      ],
      "stateMutability": "view",
      "type": "function"
    },
    {
      "inputs": [],
      "name": "getOwner",
      "outputs": [
        {
          "internalType": "address",
          "name": "",
          "type": "address"
        }
      ],
      "stateMutability": "view",
      "type": "function"
    },
    {
      "inputs": [],
      "name": "owner",
      "outputs": [
        {
          "internalType": "address",
          "name": "",
          "type": "address"
        }
      ],
      "stateMutability": "view",
      "type": "function"
    },
    {
      "inputs": [
        {
          "internalType": "bytes32",
          "name": "evidenceHash",
          "type": "bytes32"
        }
      ],
      "name": "retrieveEvidence",
      "outputs": [
        {
          "internalType": "address",
          "name": "",
          "type": "address"
        },
        {
          "internalType": "uint256",
          "name": "",
          "type": "uint256"
        },
        {
          "internalType": "bytes",
          "name": "",
          "type": "bytes"
        }
      ],
      "stateMutability": "view",
      "type": "function"
    },
    {
      "inputs": [
        {
          "internalType": "bytes32",
          "name": "_evidenceHash",
          "type": "bytes32"
        },
        {
          "internalType": "bytes",
          "name": "_signature",
          "type": "bytes"
        }
      ],
      "name": "submitEvidence",
      "outputs": [],
      "stateMutability": "nonpayable",
      "type": "function"
    }
  ],
  "bytecode": "0x608060405234801561001057600080fd5b50604051610a9f380380610a9f83398101604081905261002f916100d9565b806001600160a01b03811661008a5760405162461bcd60e51b815260206004820152601960248201527f4f776e657220616464726573732063616e6e6f74206265203000000000000000604482015260640160405180910390fd5b600080546001600160a01b0319166001600160a01b03831690811782556040519091907f342827c97908e5e2f71151c08502a66d44b6f758e3ac2f1de95f02eb95f0a735908290a35050610109565b6000602082840312156100eb57600080fd5b81516001600160a01b038116811461010257600080fd5b9392505050565b610987806101186000396000f3fe608060405234801561001057600080fd5b50600436106100935760003560e01c80638da5cb5b116100665780638da5cb5b1461012f578063a6f9dae114610142578063ae0db2c314610155578063afc4ae851461016a578063d84c09de1461017d57600080fd5b806309d6d41b1461009857806356404afd146100c35780635bdbb9cc146100d8578063893d20e81461010a575b600080fd5b6100ab6100a6366004610621565b610190565b6040516100ba9392919061065e565b60405180910390f35b6100d66100d13660046106bd565b6102d9565b005b6100fc6100e6366004610621565b6000908152600160208190526040909120015490565b6040519081526020016100ba565b6000546001600160a01b03165b6040516001600160a01b0390911681526020016100ba565b600054610117906001600160a01b031681565b6100d6610150366004610778565b61042b565b61015d61047e565b6040516100ba91906107a8565b6100fc610178366004610621565b6104de565b6100ab61018b366004610621565b6104ff565b600081815260016020526040812054819060609084906001600160a01b031633146101f65760405162461bcd60e51b81526020600482015260116024820152702737ba103a34329039bab136b6b4ba32b960791b60448201526064015b60405180910390fd5b6000858152600160208181526040808420815160608101835281546001600160a01b0316815293810154928401929092526002820180549184019161023a906107ec565b80601f0160208091040260200160405190810160405280929190818152602001828054610266906107ec565b80156102b35780601f10610288576101008083540402835291602001916102b3565b820191906000526020600020905b81548152906001019060200180831161029657829003601f168201915b505050919092525050815160208301516040909301519099929850965090945050505050565b6000828152600160205260409020546001600160a01b03161561033e5760405162461bcd60e51b815260206004820152601b60248201527f45766964656e636520616c7265616479207375626d69747465642e000000000060448201526064016101ed565b60408051606081018252338152426020808301828152838501868152600088815260019384905295909520845181546001600160a01b0319166001600160a01b03909116178155905191810191909155925190929060028201906103a29082610875565b5050600280546001810182556000919091527f405787fa12a823e0f2b7631cc41b3ba8828b3321ca811111fa75cd3aa3bb5ace01849055506040516103e8908390610935565b60405190819003812082825290849033907f50b651900192c1ec873c02d3b156a36bdc9965ae8d4ca842c1091b14fcef1ae79060200160405180910390a4505050565b6104336105b7565b600080546001600160a01b0319166001600160a01b0383169081178255604051909182917f342827c97908e5e2f71151c08502a66d44b6f758e3ac2f1de95f02eb95f0a7359190a350565b60606104886105b7565b60028054806020026020016040519081016040528092919081815260200182805480156104d457602002820191906000526020600020905b8154815260200190600101908083116104c0575b5050505050905090565b600281815481106104ee57600080fd5b600091825260209091200154905081565b60016020819052600091825260409091208054918101546002820180546001600160a01b0390941693919291610534906107ec565b80601f0160208091040260200160405190810160405280929190818152602001828054610560906107ec565b80156105ad5780601f10610582576101008083540402835291602001916105ad565b820191906000526020600020905b81548152906001019060200180831161059057829003601f168201915b5050505050905083565b6000546001600160a01b0316331461061f5760405162461bcd60e51b815260206004820152602560248201527f4f776e657220636f6e74726163742063616e207065666f726d2074686973206160448201526431ba34b7b760d91b60648201526084016101ed565b565b60006020828403121561063357600080fd5b5035919050565b60005b8381101561065557818101518382015260200161063d565b50506000910152565b60018060a01b0384168152826020820152606060408201526000825180606084015261069181608085016020870161063a565b601f01601f191691909101608001949350505050565b634e487b7160e01b600052604160045260246000fd5b600080604083850312156106d057600080fd5b82359150602083013567ffffffffffffffff808211156106ef57600080fd5b818501915085601f83011261070357600080fd5b813581811115610715576107156106a7565b604051601f8201601f19908116603f0116810190838211818310171561073d5761073d6106a7565b8160405282815288602084870101111561075657600080fd5b8260208601602083013760006020848301015280955050505050509250929050565b60006020828403121561078a57600080fd5b81356001600160a01b03811681146107a157600080fd5b9392505050565b6020808252825182820181905260009190848201906040850190845b818110156107e0578351835292840192918401916001016107c4565b50909695505050505050565b600181811c9082168061080057607f821691505b60208210810361082057634e487b7160e01b600052602260045260246000fd5b50919050565b601f82111561087057600081815260208120601f850160051c8101602086101561084d5750805b601f850160051c820191505b8181101561086c57828155600101610859565b5050505b505050565b815167ffffffffffffffff81111561088f5761088f6106a7565b6108a38161089d84546107ec565b84610826565b602080601f8311600181146108d857600084156108c05750858301515b600019600386901b1c1916600185901b17855561086c565b600085815260208120601f198616915b82811015610907578886015182559484019460019091019084016108e8565b50858210156109255787850151600019600388901b60f8161c191681555b5050505050600190811b01905550565b6000825161094781846020870161063a565b919091019291505056fea2646970667358221220df6b0f33909cd8d452ff25d16150c60b61e53e0c4f95afadc00a4cd56f19f83064736f6c63430008140033",
  "linkReferences": {},
  "deployedLinkReferences": {}
}