{
  "_format": "hh-sol-artifact-1",
  "contractName": "Token",
  "sourceName": "contracts/Token.sol",
  "abi": [
    {
      "inputs": [
        {
          "internalType": "address",
          "name": "_inititalOwner",
          "type": "address"
        },
        {
          "internalType": "uint256",
          "name": "_inititalSupply",
          "type": "uint256"
        },
        {
          "internalType": "uint256",
          "name": "_transactionTax",
          "type": "uint256"
        },
        {
          "internalType": "address",
          "name": "_receiveTax",
          "type": "address"
        }
      ],
      "stateMutability": "nonpayable",
      "type": "constructor"
    },
    {
      "inputs": [],
      "name": "CheckpointUnorderedInsertion",
      "type": "error"
    },
    {
      "inputs": [],
      "name": "ECDSAInvalidSignature",
      "type": "error"
    },
    {
      "inputs": [
        {
          "internalType": "uint256",
          "name": "length",
          "type": "uint256"
        }
      ],
      "name": "ECDSAInvalidSignatureLength",
      "type": "error"
    },
    {
      "inputs": [
        {
          "internalType": "bytes32",
          "name": "s",
          "type": "bytes32"
        }
      ],
      "name": "ECDSAInvalidSignatureS",
      "type": "error"
    },
    {
      "inputs": [
        {
          "internalType": "uint256",
          "name": "increasedSupply",
          "type": "uint256"
        },
        {
          "internalType": "uint256",
          "name": "cap",
          "type": "uint256"
        }
      ],
      "name": "ERC20ExceededSafeSupply",
      "type": "error"
    },
    {
      "inputs": [
        {
          "internalType": "address",
          "name": "spender",
          "type": "address"
        },
        {
          "internalType": "uint256",
          "name": "allowance",
          "type": "uint256"
        },
        {
          "internalType": "uint256",
          "name": "needed",
          "type": "uint256"
        }
      ],
      "name": "ERC20InsufficientAllowance",
      "type": "error"
    },
    {
      "inputs": [
        {
          "internalType": "address",
          "name": "sender",
          "type": "address"
        },
        {
          "internalType": "uint256",
          "name": "balance",
          "type": "uint256"
        },
        {
          "internalType": "uint256",
          "name": "needed",
          "type": "uint256"
        }
      ],
      "name": "ERC20InsufficientBalance",
      "type": "error"
    },
    {
      "inputs": [
        {
          "internalType": "address",
          "name": "approver",
          "type": "address"
        }
      ],
      "name": "ERC20InvalidApprover",
      "type": "error"
    },
    {
      "inputs": [
        {
          "internalType": "address",
          "name": "receiver",
          "type": "address"
        }
      ],
      "name": "ERC20InvalidReceiver",
      "type": "error"
    },
    {
      "inputs": [
        {
          "internalType": "address",
          "name": "sender",
          "type": "address"
        }
      ],
      "name": "ERC20InvalidSender",
      "type": "error"
    },
    {
      "inputs": [
        {
          "internalType": "address",
          "name": "spender",
          "type": "address"
        }
      ],
      "name": "ERC20InvalidSpender",
      "type": "error"
    },
    {
      "inputs": [
        {
          "internalType": "uint256",
          "name": "deadline",
          "type": "uint256"
        }
      ],
      "name": "ERC2612ExpiredSignature",
      "type": "error"
    },
    {
      "inputs": [
        {
          "internalType": "address",
          "name": "signer",
          "type": "address"
        },
        {
          "internalType": "address",
          "name": "owner",
          "type": "address"
        }
      ],
      "name": "ERC2612InvalidSigner",
      "type": "error"
    },
    {
      "inputs": [
        {
          "internalType": "uint256",
          "name": "timepoint",
          "type": "uint256"
        },
        {
          "internalType": "uint48",
          "name": "clock",
          "type": "uint48"
        }
      ],
      "name": "ERC5805FutureLookup",
      "type": "error"
    },
    {
      "inputs": [],
      "name": "ERC6372InconsistentClock",
      "type": "error"
    },
    {
      "inputs": [
        {
          "internalType": "address",
          "name": "account",
          "type": "address"
        },
        {
          "internalType": "uint256",
          "name": "currentNonce",
          "type": "uint256"
        }
      ],
      "name": "InvalidAccountNonce",
      "type": "error"
    },
    {
      "inputs": [],
      "name": "InvalidShortString",
      "type": "error"
    },
    {
      "inputs": [
        {
          "internalType": "address",
          "name": "owner",
          "type": "address"
        }
      ],
      "name": "OwnableInvalidOwner",
      "type": "error"
    },
    {
      "inputs": [
        {
          "internalType": "address",
          "name": "account",
          "type": "address"
        }
      ],
      "name": "OwnableUnauthorizedAccount",
      "type": "error"
    },
    {
      "inputs": [
        {
          "internalType": "uint8",
          "name": "bits",
          "type": "uint8"
        },
        {
          "internalType": "uint256",
          "name": "value",
          "type": "uint256"
        }
      ],
      "name": "SafeCastOverflowedUintDowncast",
      "type": "error"
    },
    {
      "inputs": [
        {
          "internalType": "string",
          "name": "str",
          "type": "string"
        }
      ],
      "name": "StringTooLong",
      "type": "error"
    },
    {
      "inputs": [
        {
          "internalType": "uint256",
          "name": "expiry",
          "type": "uint256"
        }
      ],
      "name": "VotesExpiredSignature",
      "type": "error"
    },
    {
      "anonymous": false,
      "inputs": [
        {
          "indexed": true,
          "internalType": "address",
          "name": "owner",
          "type": "address"
        },
        {
          "indexed": true,
          "internalType": "address",
          "name": "spender",
          "type": "address"
        },
        {
          "indexed": false,
          "internalType": "uint256",
          "name": "value",
          "type": "uint256"
        }
      ],
      "name": "Approval",
      "type": "event"
    },
    {
      "anonymous": false,
      "inputs": [
        {
          "indexed": true,
          "internalType": "address",
          "name": "delegator",
          "type": "address"
        },
        {
          "indexed": true,
          "internalType": "address",
          "name": "fromDelegate",
          "type": "address"
        },
        {
          "indexed": true,
          "internalType": "address",
          "name": "toDelegate",
          "type": "address"
        }
      ],
      "name": "DelegateChanged",
      "type": "event"
    },
    {
      "anonymous": false,
      "inputs": [
        {
          "indexed": true,
          "internalType": "address",
          "name": "delegate",
          "type": "address"
        },
        {
          "indexed": false,
          "internalType": "uint256",
          "name": "previousVotes",
          "type": "uint256"
        },
        {
          "indexed": false,
          "internalType": "uint256",
          "name": "newVotes",
          "type": "uint256"
        }
      ],
      "name": "DelegateVotesChanged",
      "type": "event"
    },
    {
      "anonymous": false,
      "inputs": [],
      "name": "EIP712DomainChanged",
      "type": "event"
    },
    {
      "anonymous": false,
      "inputs": [
        {
          "indexed": true,
          "internalType": "address",
          "name": "previousOwner",
          "type": "address"
        },
        {
          "indexed": true,
          "internalType": "address",
          "name": "newOwner",
          "type": "address"
        }
      ],
      "name": "OwnershipTransferred",
      "type": "event"
    },
    {
      "anonymous": false,
      "inputs": [
        {
          "indexed": true,
          "internalType": "address",
          "name": "from",
          "type": "address"
        },
        {
          "indexed": true,
          "internalType": "address",
          "name": "to",
          "type": "address"
        },
        {
          "indexed": false,
          "internalType": "uint256",
          "name": "value",
          "type": "uint256"
        }
      ],
      "name": "Transfer",
      "type": "event"
    },
    {
      "inputs": [],
      "name": "CLOCK_MODE",
      "outputs": [
        {
          "internalType": "string",
          "name": "",
          "type": "string"
        }
      ],
      "stateMutability": "pure",
      "type": "function"
    },
    {
      "inputs": [],
      "name": "DOMAIN_SEPARATOR",
      "outputs": [
        {
          "internalType": "bytes32",
          "name": "",
          "type": "bytes32"
        }
      ],
      "stateMutability": "view",
      "type": "function"
    },
    {
      "inputs": [],
      "name": "MAX_TAX_RATE",
      "outputs": [
        {
          "internalType": "uint256",
          "name": "",
          "type": "uint256"
        }
      ],
      "stateMutability": "view",
      "type": "function"
    },
    {
      "inputs": [
        {
          "internalType": "address",
          "name": "owner",
          "type": "address"
        },
        {
          "internalType": "address",
          "name": "spender",
          "type": "address"
        }
      ],
      "name": "allowance",
      "outputs": [
        {
          "internalType": "uint256",
          "name": "",
          "type": "uint256"
        }
      ],
      "stateMutability": "view",
      "type": "function"
    },
    {
      "inputs": [
        {
          "internalType": "address",
          "name": "spender",
          "type": "address"
        },
        {
          "internalType": "uint256",
          "name": "value",
          "type": "uint256"
        }
      ],
      "name": "approve",
      "outputs": [
        {
          "internalType": "bool",
          "name": "",
          "type": "bool"
        }
      ],
      "stateMutability": "nonpayable",
      "type": "function"
    },
    {
      "inputs": [
        {
          "internalType": "address",
          "name": "account",
          "type": "address"
        }
      ],
      "name": "balanceOf",
      "outputs": [
        {
          "internalType": "uint256",
          "name": "",
          "type": "uint256"
        }
      ],
      "stateMutability": "view",
      "type": "function"
    },
    {
      "inputs": [
        {
          "internalType": "uint256",
          "name": "amount",
          "type": "uint256"
        }
      ],
      "name": "burn",
      "outputs": [],
      "stateMutability": "nonpayable",
      "type": "function"
    },
    {
      "inputs": [
        {
          "internalType": "address",
          "name": "account",
          "type": "address"
        },
        {
          "internalType": "uint32",
          "name": "pos",
          "type": "uint32"
        }
      ],
      "name": "checkpoints",
      "outputs": [
        {
          "components": [
            {
              "internalType": "uint48",
              "name": "_key",
              "type": "uint48"
            },
            {
              "internalType": "uint208",
              "name": "_value",
              "type": "uint208"
            }
          ],
          "internalType": "struct Checkpoints.Checkpoint208",
          "name": "",
          "type": "tuple"
        }
      ],
      "stateMutability": "view",
      "type": "function"
    },
    {
      "inputs": [],
      "name": "clock",
      "outputs": [
        {
          "internalType": "uint48",
          "name": "",
          "type": "uint48"
        }
      ],
      "stateMutability": "view",
      "type": "function"
    },
    {
      "inputs": [],
      "name": "decimals",
      "outputs": [
        {
          "internalType": "uint8",
          "name": "",
          "type": "uint8"
        }
      ],
      "stateMutability": "view",
      "type": "function"
    },
    {
      "inputs": [
        {
          "internalType": "address",
          "name": "delegatee",
          "type": "address"
        }
      ],
      "name": "delegate",
      "outputs": [],
      "stateMutability": "nonpayable",
      "type": "function"
    },
    {
      "inputs": [
        {
          "internalType": "address",
          "name": "delegatee",
          "type": "address"
        },
        {
          "internalType": "uint256",
          "name": "nonce",
          "type": "uint256"
        },
        {
          "internalType": "uint256",
          "name": "expiry",
          "type": "uint256"
        },
        {
          "internalType": "uint8",
          "name": "v",
          "type": "uint8"
        },
        {
          "internalType": "bytes32",
          "name": "r",
          "type": "bytes32"
        },
        {
          "internalType": "bytes32",
          "name": "s",
          "type": "bytes32"
        }
      ],
      "name": "delegateBySig",
      "outputs": [],
      "stateMutability": "nonpayable",
      "type": "function"
    },
    {
      "inputs": [
        {
          "internalType": "address",
          "name": "account",
          "type": "address"
        }
      ],
      "name": "delegates",
      "outputs": [
        {
          "internalType": "address",
          "name": "",
          "type": "address"
        }
      ],
      "stateMutability": "view",
      "type": "function"
    },
    {
      "inputs": [],
      "name": "eip712Domain",
      "outputs": [
        {
          "internalType": "bytes1",
          "name": "fields",
          "type": "bytes1"
        },
        {
          "internalType": "string",
          "name": "name",
          "type": "string"
        },
        {
          "internalType": "string",
          "name": "version",
          "type": "string"
        },
        {
          "internalType": "uint256",
          "name": "chainId",
          "type": "uint256"
        },
        {
          "internalType": "address",
          "name": "verifyingContract",
          "type": "address"
        },
        {
          "internalType": "bytes32",
          "name": "salt",
          "type": "bytes32"
        },
        {
          "internalType": "uint256[]",
          "name": "extensions",
          "type": "uint256[]"
        }
      ],
      "stateMutability": "view",
      "type": "function"
    },
    {
      "inputs": [
        {
          "internalType": "uint256",
          "name": "timepoint",
          "type": "uint256"
        }
      ],
      "name": "getPastTotalSupply",
      "outputs": [
        {
          "internalType": "uint256",
          "name": "",
          "type": "uint256"
        }
      ],
      "stateMutability": "view",
      "type": "function"
    },
    {
      "inputs": [
        {
          "internalType": "address",
          "name": "account",
          "type": "address"
        },
        {
          "internalType": "uint256",
          "name": "timepoint",
          "type": "uint256"
        }
      ],
      "name": "getPastVotes",
      "outputs": [
        {
          "internalType": "uint256",
          "name": "",
          "type": "uint256"
        }
      ],
      "stateMutability": "view",
      "type": "function"
    },
    {
      "inputs": [
        {
          "internalType": "address",
          "name": "account",
          "type": "address"
        }
      ],
      "name": "getVotes",
      "outputs": [
        {
          "internalType": "uint256",
          "name": "",
          "type": "uint256"
        }
      ],
      "stateMutability": "view",
      "type": "function"
    },
    {
      "inputs": [
        {
          "internalType": "address",
          "name": "to",
          "type": "address"
        },
        {
          "internalType": "uint256",
          "name": "amount",
          "type": "uint256"
        }
      ],
      "name": "mint",
      "outputs": [],
      "stateMutability": "nonpayable",
      "type": "function"
    },
    {
      "inputs": [],
      "name": "name",
      "outputs": [
        {
          "internalType": "string",
          "name": "",
          "type": "string"
        }
      ],
      "stateMutability": "view",
      "type": "function"
    },
    {
      "inputs": [
        {
          "internalType": "address",
          "name": "owner",
          "type": "address"
        }
      ],
      "name": "nonces",
      "outputs": [
        {
          "internalType": "uint256",
          "name": "",
          "type": "uint256"
        }
      ],
      "stateMutability": "view",
      "type": "function"
    },
    {
      "inputs": [
        {
          "internalType": "address",
          "name": "account",
          "type": "address"
        }
      ],
      "name": "numCheckpoints",
      "outputs": [
        {
          "internalType": "uint32",
          "name": "",
          "type": "uint32"
        }
      ],
      "stateMutability": "view",
      "type": "function"
    },
    {
      "inputs": [],
      "name": "owner",
      "outputs": [
        {
          "internalType": "address",
          "name": "",
          "type": "address"
        }
      ],
      "stateMutability": "view",
      "type": "function"
    },
    {
      "inputs": [
        {
          "internalType": "address",
          "name": "owner",
          "type": "address"
        },
        {
          "internalType": "address",
          "name": "spender",
          "type": "address"
        },
        {
          "internalType": "uint256",
          "name": "value",
          "type": "uint256"
        },
        {
          "internalType": "uint256",
          "name": "deadline",
          "type": "uint256"
        },
        {
          "internalType": "uint8",
          "name": "v",
          "type": "uint8"
        },
        {
          "internalType": "bytes32",
          "name": "r",
          "type": "bytes32"
        },
        {
          "internalType": "bytes32",
          "name": "s",
          "type": "bytes32"
        }
      ],
      "name": "permit",
      "outputs": [],
      "stateMutability": "nonpayable",
      "type": "function"
    },
    {
      "inputs": [],
      "name": "poolReward",
      "outputs": [
        {
          "internalType": "uint256",
          "name": "",
          "type": "uint256"
        }
      ],
      "stateMutability": "view",
      "type": "function"
    },
    {
      "inputs": [],
      "name": "receiveTax",
      "outputs": [
        {
          "internalType": "address",
          "name": "",
          "type": "address"
        }
      ],
      "stateMutability": "view",
      "type": "function"
    },
    {
      "inputs": [],
      "name": "renounceOwnership",
      "outputs": [],
      "stateMutability": "nonpayable",
      "type": "function"
    },
    {
      "inputs": [
        {
          "internalType": "address",
          "name": "recipient",
          "type": "address"
        }
      ],
      "name": "rewardForValidEvidence",
      "outputs": [],
      "stateMutability": "nonpayable",
      "type": "function"
    },
    {
      "inputs": [],
      "name": "rewardTokenAmount",
      "outputs": [
        {
          "internalType": "uint256",
          "name": "",
          "type": "uint256"
        }
      ],
      "stateMutability": "view",
      "type": "function"
    },
    {
      "inputs": [
        {
          "internalType": "address",
          "name": "_newReceiveTax",
          "type": "address"
        }
      ],
      "name": "setReceiveTax",
      "outputs": [],
      "stateMutability": "nonpayable",
      "type": "function"
    },
    {
      "inputs": [
        {
          "internalType": "uint256",
          "name": "_newRewardTokenAmount",
          "type": "uint256"
        }
      ],
      "name": "setRewardTokenAmount",
      "outputs": [],
      "stateMutability": "nonpayable",
      "type": "function"
    },
    {
      "inputs": [
        {
          "internalType": "uint256",
          "name": "_newTaxRate",
          "type": "uint256"
        }
      ],
      "name": "setTransactionTaxRate",
      "outputs": [],
      "stateMutability": "nonpayable",
      "type": "function"
    },
    {
      "inputs": [],
      "name": "symbol",
      "outputs": [
        {
          "internalType": "string",
          "name": "",
          "type": "string"
        }
      ],
      "stateMutability": "view",
      "type": "function"
    },
    {
      "inputs": [],
      "name": "totalSupply",
      "outputs": [
        {
          "internalType": "uint256",
          "name": "",
          "type": "uint256"
        }
      ],
      "stateMutability": "view",
      "type": "function"
    },
    {
      "inputs": [],
      "name": "transactionTaxRate",
      "outputs": [
        {
          "internalType": "uint256",
          "name": "",
          "type": "uint256"
        }
      ],
      "stateMutability": "view",
      "type": "function"
    },
    {
      "inputs": [
        {
          "internalType": "address",
          "name": "to",
          "type": "address"
        },
        {
          "internalType": "uint256",
          "name": "amount",
          "type": "uint256"
        }
      ],
      "name": "transfer",
      "outputs": [
        {
          "internalType": "bool",
          "name": "",
          "type": "bool"
        }
      ],
      "stateMutability": "nonpayable",
      "type": "function"
    },
    {
      "inputs": [
        {
          "internalType": "address",
          "name": "from",
          "type": "address"
        },
        {
          "internalType": "address",
          "name": "to",
          "type": "address"
        },
        {
          "internalType": "uint256",
          "name": "value",
          "type": "uint256"
        }
      ],
      "name": "transferFrom",
      "outputs": [
        {
          "internalType": "bool",
          "name": "",
          "type": "bool"
        }
      ],
      "stateMutability": "nonpayable",
      "type": "function"
    },
    {
      "inputs": [
        {
          "internalType": "address",
          "name": "newOwner",
          "type": "address"
        }
      ],
      "name": "transferOwnership",
      "outputs": [],
      "stateMutability": "nonpayable",
      "type": "function"
    }
  ],
  "bytecode": "0x6101606040523480156200001257600080fd5b506040516200305e3803806200305e833981016040819052620000359162000965565b6040518060400160405280600281526020016111d560f21b81525080604051806040016040528060018152602001603160f81b815250866040518060400160405280601681526020017f436172626f6e20546f6b656e2050726f706f73616c73000000000000000000008152506040518060400160405280600381526020016204354560ec1b8152508160039081620000cf919062000a54565b506004620000de828262000a54565b5050506001600160a01b0381166200011157604051631e4fbdf760e01b8152600060048201526024015b60405180910390fd5b6200011c816200020d565b506200012a8260066200025f565b610120526200013b8160076200025f565b61014052815160208084019190912060e052815190820120610100524660a052620001c960e05161010051604080517f8b73c3c69bb8fe3d512ecc4cf759cc79239f7b179b0ffacaa9a75d522b39400f60208201529081019290925260608201524660808201523060a082015260009060c00160405160208183030381529060405280519060200120905090565b60805250503060c05250620001df848462000298565b600c91909155600d80546001600160a01b0319166001600160a01b039092169190911790555062000c249050565b600580546001600160a01b038381166001600160a01b0319831681179093556040519116919082907f8be0079c531659141344cd1fd0a4f28419497f9722a3daafe3b4186f6b6457e090600090a35050565b60006020835110156200027f576200027783620002d6565b905062000292565b816200028c848262000a54565b5060ff90505b92915050565b6001600160a01b038216620002c45760405163ec442f0560e01b81526000600482015260240162000108565b620002d26000838362000319565b5050565b600080829050601f8151111562000304578260405163305a27a960e01b815260040162000108919062000b20565b8051620003118262000b70565b179392505050565b620003268383836200032b565b505050565b620003388383836200039a565b6001600160a01b0383166200038d5760006200035360025490565b90506001600160d01b03808211156200038a57604051630e58ae9360e11b8152600481018390526024810182905260440162000108565b50505b62000326838383620004cd565b6001600160a01b038316620003c9578060026000828254620003bd919062000bab565b909155506200043d9050565b6001600160a01b038316600090815260208190526040902054818110156200041e5760405163391434e360e21b81526001600160a01b0385166004820152602481018290526044810183905260640162000108565b6001600160a01b03841660009081526020819052604090209082900390555b6001600160a01b0382166200045b576002805482900390556200047a565b6001600160a01b03821660009081526020819052604090208054820190555b816001600160a01b0316836001600160a01b03167fddf252ad1be2c89b69c2b068fc378daa952ba7f163c4a11628f55a4df523b3ef83604051620004c091815260200190565b60405180910390a3505050565b6001600160a01b0383166200050257620004ff600b62000d7c6200056560201b17620004f9846200057a565b620005b4565b50505b6001600160a01b03821662000531576200052e600b62000d88620005e860201b17620004f9846200057a565b50505b6001600160a01b038381166000908152600960205260408082205485841683529120546200032692918216911683620005f6565b600062000573828462000bc1565b9392505050565b60006001600160d01b03821115620005b0576040516306dfcc6560e41b815260d060048201526024810183905260440162000108565b5090565b600080620005db42620005d2620005cb886200075d565b868860201c565b879190620007ac565b915091505b935093915050565b600062000573828462000beb565b816001600160a01b0316836001600160a01b031614158015620006195750600081115b1562000326576001600160a01b03831615620006bc576001600160a01b0383166000908152600a6020908152604082208291620006679190620005e8901b62000d8817620004f9866200057a565b6001600160d01b031691506001600160d01b03169150846001600160a01b03166000805160206200303e8339815191528383604051620006b1929190918252602082015260400190565b60405180910390a250505b6001600160a01b0382161562000326576001600160a01b0382166000908152600a602090815260408220829162000704919062000565901b62000d7c17620004f9866200057a565b6001600160d01b031691506001600160d01b03169150836001600160a01b03166000805160206200303e83398151915283836040516200074e929190918252602082015260400190565b60405180910390a25050505050565b80546000908015620007a35762000789836200077b60018462000c0e565b600091825260209091200190565b54660100000000000090046001600160d01b031662000573565b60009392505050565b600080620005db858585825460009081908015620008e9576000620007d8876200077b60018562000c0e565b60408051808201909152905465ffffffffffff80821680845266010000000000009092046001600160d01b0316602084015291925090871610156200083057604051632520601d60e01b815260040160405180910390fd5b805165ffffffffffff80881691160362000884578462000857886200077b60018662000c0e565b80546001600160d01b039290921666010000000000000265ffffffffffff909216919091179055620008d8565b6040805180820190915265ffffffffffff80881682526001600160d01b0380881660208085019182528b54600181018d5560008d815291909120945191519092166601000000000000029216919091179101555b602001519250839150620005e09050565b50506040805180820190915265ffffffffffff80851682526001600160d01b0380851660208085019182528854600181018a5560008a8152918220955192519093166601000000000000029190931617920191909155905081620005e0565b80516001600160a01b03811681146200096057600080fd5b919050565b600080600080608085870312156200097c57600080fd5b620009878562000948565b93506020850151925060408501519150620009a56060860162000948565b905092959194509250565b634e487b7160e01b600052604160045260246000fd5b600181811c90821680620009db57607f821691505b602082108103620009fc57634e487b7160e01b600052602260045260246000fd5b50919050565b601f8211156200032657600081815260208120601f850160051c8101602086101562000a2b5750805b601f850160051c820191505b8181101562000a4c5782815560010162000a37565b505050505050565b81516001600160401b0381111562000a705762000a70620009b0565b62000a888162000a818454620009c6565b8462000a02565b602080601f83116001811462000ac0576000841562000aa75750858301515b600019600386901b1c1916600185901b17855562000a4c565b600085815260208120601f198616915b8281101562000af15788860151825594840194600190910190840162000ad0565b508582101562000b105787850151600019600388901b60f8161c191681555b5050505050600190811b01905550565b600060208083528351808285015260005b8181101562000b4f5785810183015185820160400152820162000b31565b506000604082860101526040601f19601f8301168501019250505092915050565b80516020808301519190811015620009fc5760001960209190910360031b1b16919050565b634e487b7160e01b600052601160045260246000fd5b8082018082111562000292576200029262000b95565b6001600160d01b0381811683821601908082111562000be45762000be462000b95565b5092915050565b6001600160d01b0382811682821603908082111562000be45762000be462000b95565b8181038181111562000292576200029262000b95565b60805160a05160c05160e0516101005161012051610140516123bf62000c7f600039600061126c0152600061123f01526000610f5d01526000610f3501526000610e9001526000610eba01526000610ee401526123bf6000f3fe608060405234801561001057600080fd5b50600436106102275760003560e01c80637ecebe00116101305780639ab24eb0116100b8578063dd62ed3e1161007c578063dd62ed3e146104e1578063ee2365481461051a578063f1127ed81461052d578063f2fde38b1461056c578063fef10b951461057f57600080fd5b80639ab24eb01461048c578063a9059cbb1461049f578063c3cda520146104b2578063d3e8237d146104c5578063d505accf146104ce57600080fd5b80638e539e8c116100ff5780638e539e8c1461043f5780638fa817321461045257806391ddadf41461045b57806395d89b4114610471578063964efd881461047957600080fd5b80637ecebe00146103f7578063837221e51461040a57806384b0196e146104135780638da5cb5b1461042e57600080fd5b80634bf5d7e9116101b3578063671e72d911610182578063671e72d9146103785780636fcfff451461038b57806370a08231146103b3578063715018a6146103dc5780637dc2ecce146103e457600080fd5b80634bf5d7e9146102e45780634c4335f11461030e578063587cde1e146103215780635c19a95c1461036557600080fd5b8063313ce567116101fa578063313ce567146102925780633644e515146102a15780633a46b1a8146102a957806340c10f19146102bc57806342966c68146102d157600080fd5b806306fdde031461022c578063095ea7b31461024a57806318160ddd1461026d57806323b872dd1461027f575b600080fd5b610234610588565b6040516102419190611fac565b60405180910390f35b61025d610258366004611fdb565b61061a565b6040519015158152602001610241565b6002545b604051908152602001610241565b61025d61028d366004612005565b610634565b60405160128152602001610241565b610271610658565b6102716102b7366004611fdb565b610667565b6102cf6102ca366004611fdb565b6106e3565b005b6102cf6102df366004612041565b6106f9565b60408051808201909152600e81526d06d6f64653d74696d657374616d760941b6020820152610234565b6102cf61031c36600461205a565b610706565b61034d61032f36600461205a565b6001600160a01b039081166000908152600960205260409020541690565b6040516001600160a01b039091168152602001610241565b6102cf61037336600461205a565b610730565b600d5461034d906001600160a01b031681565b61039e61039936600461205a565b61073b565b60405163ffffffff9091168152602001610241565b6102716103c136600461205a565b6001600160a01b031660009081526020819052604090205490565b6102cf610746565b6102cf6103f2366004612041565b61075a565b61027161040536600461205a565b6107ca565b610271600c5481565b61041b6107d5565b6040516102419796959493929190612075565b6005546001600160a01b031661034d565b61027161044d366004612041565b61081b565b61027161271081565b60405165ffffffffffff42168152602001610241565b61023461087b565b6102cf61048736600461205a565b61088a565b61027161049a36600461205a565b6108e4565b61025d6104ad366004611fdb565b610914565b6102cf6104c036600461211c565b610a4d565b610271600f5481565b6102cf6104dc366004612174565b610b0a565b6102716104ef3660046121de565b6001600160a01b03918216600090815260016020908152604080832093909416825291909152205490565b6102cf610528366004612041565b610c44565b61054061053b366004612211565b610d1c565b60408051825165ffffffffffff1681526020928301516001600160d01b03169281019290925201610241565b6102cf61057a36600461205a565b610d41565b610271600e5481565b60606003805461059790612251565b80601f01602080910402602001604051908101604052809291908181526020018280546105c390612251565b80156106105780601f106105e557610100808354040283529160200191610610565b820191906000526020600020905b8154815290600101906020018083116105f357829003601f168201915b5050505050905090565b600033610628818585610d94565b60019150505b92915050565b600033610642858285610da6565b61064d858585610e24565b506001949350505050565b6000610662610e83565b905090565b60004265ffffffffffff811683106106a857604051637669fc0f60e11b81526004810184905265ffffffffffff821660248201526044015b60405180910390fd5b6106d26106b484610fae565b6001600160a01b0386166000908152600a6020526040902090610fe5565b6001600160d01b0316949350505050565b6106eb61109b565b6106f582826110c8565b5050565b61070333826110fe565b50565b61070e61109b565b600d80546001600160a01b0319166001600160a01b0392909216919091179055565b336106f58183611134565b600061062e826111a6565b61074e61109b565b61075860006111c8565b565b61076261109b565b61271081106107c55760405162461bcd60e51b815260206004820152602960248201527f5461782072617465206d75737420626520696e20626173696320706f696e7420604482015268030202d2031303030360bc1b606482015260840161069f565b600c55565b600061062e8261121a565b6000606080600080600060606107e9611238565b6107f1611265565b60408051600080825260208201909252600f60f81b9b939a50919850469750309650945092509050565b60004265ffffffffffff8116831061085757604051637669fc0f60e11b81526004810184905265ffffffffffff8216602482015260440161069f565b61086b61086384610fae565b600b90610fe5565b6001600160d01b03169392505050565b60606004805461059790612251565b6001600160a01b0381166108d85760405162461bcd60e51b815260206004820152601560248201527420b2323932b9b99034b9903737ba103b30b634b21760591b604482015260640161069f565b61070381600f546110c8565b6001600160a01b0381166000908152600a6020526040812061090590611292565b6001600160d01b031692915050565b600080612710600c548461092891906122a1565b61093291906122ce565b9050600061094082856122f0565b905081600e60008282546109549190612303565b90915550610964905085826112cb565b6109a95760405162461bcd60e51b81526020600482015260166024820152752a37b5b2b7103a3930b739b332b9103330b4b632b21760511b604482015260640161069f565b600d546109bf906001600160a01b0316836112cb565b610a0b5760405162461bcd60e51b815260206004820152601760248201527f5472616e7366657220746f20706f6f6c206661696c6564000000000000000000604482015260640161069f565b6001600160a01b038516600090815260106020526040812054900361064d57505050506001600160a01b03166000908152601060205260409020429055600190565b83421115610a7157604051632341d78760e11b81526004810185905260240161069f565b604080517fe48329057bfd03d55e49b547132e39cffd9c1820ad7b9d4c5307691425d15adf60208201526001600160a01b038816918101919091526060810186905260808101859052600090610aeb90610ae39060a001604051602081830303815290604052805190602001206112d9565b858585611306565b9050610af78187611334565b610b018188611134565b50505050505050565b83421115610b2e5760405163313c898160e11b81526004810185905260240161069f565b60007f6e71edae12b1b97f4d1f60370fef10105fa2faae0126114a169c64845d6126c9888888610b7b8c6001600160a01b0316600090815260086020526040902080546001810190915590565b6040805160208101969096526001600160a01b0394851690860152929091166060840152608083015260a082015260c0810186905260e0016040516020818303038152906040528051906020012090506000610bd6826112d9565b90506000610be682878787611306565b9050896001600160a01b0316816001600160a01b031614610c2d576040516325c0072360e11b81526001600160a01b0380831660048301528b16602482015260440161069f565b610c388a8a8a610d94565b50505050505050505050565b60008111610ca75760405162461bcd60e51b815260206004820152602a60248201527f52657761726420746f6b656e20616d6f756e74206d75737420626520677265616044820152690746572207468616e20360b41b606482015260840161069f565b80600f5482610cb69190612303565b1015610d175760405162461bcd60e51b815260206004820152602a60248201527f4f766572666c6f7720647572696e672072657761726420746f6b656e20616d6f604482015269756e742075706461746560b01b606482015260840161069f565b600f55565b6040805180820190915260008082526020820152610d3a8383611387565b9392505050565b610d4961109b565b6001600160a01b038116610d7357604051631e4fbdf760e01b81526000600482015260240161069f565b610703816111c8565b6000610d3a8284612316565b6000610d3a828461233d565b610da183838360016113bd565b505050565b6001600160a01b038381166000908152600160209081526040808320938616835292905220546000198114610e1e5781811015610e0f57604051637dc7a0d960e11b81526001600160a01b0384166004820152602481018290526044810183905260640161069f565b610e1e848484840360006113bd565b50505050565b6001600160a01b038316610e4e57604051634b637e8f60e11b81526000600482015260240161069f565b6001600160a01b038216610e785760405163ec442f0560e01b81526000600482015260240161069f565b610da1838383611492565b6000306001600160a01b037f000000000000000000000000000000000000000000000000000000000000000016148015610edc57507f000000000000000000000000000000000000000000000000000000000000000046145b15610f0657507f000000000000000000000000000000000000000000000000000000000000000090565b610662604080517f8b73c3c69bb8fe3d512ecc4cf759cc79239f7b179b0ffacaa9a75d522b39400f60208201527f0000000000000000000000000000000000000000000000000000000000000000918101919091527f000000000000000000000000000000000000000000000000000000000000000060608201524660808201523060a082015260009060c00160405160208183030381529060405280519060200120905090565b600065ffffffffffff821115610fe1576040516306dfcc6560e41b8152603060048201526024810183905260440161069f565b5090565b8154600090818160058111156110445760006110008461149d565b61100a90856122f0565b60008881526020902090915081015465ffffffffffff908116908716101561103457809150611042565b61103f816001612303565b92505b505b600061105287878585611585565b9050801561108d57611077876110696001846122f0565b600091825260209091200190565b54600160301b90046001600160d01b0316611090565b60005b979650505050505050565b6005546001600160a01b031633146107585760405163118cdaa760e01b815233600482015260240161069f565b6001600160a01b0382166110f25760405163ec442f0560e01b81526000600482015260240161069f565b6106f560008383611492565b6001600160a01b03821661112857604051634b637e8f60e11b81526000600482015260240161069f565b6106f582600083611492565b6001600160a01b0382811660008181526009602052604080822080548686166001600160a01b0319821681179092559151919094169392849290917f3134e8a2e6d97e929a7e54011ea5485d7d196dd5f0ba4d4ef95803e8e3fc257f9190a4610da181836111a1866115e7565b611605565b6001600160a01b0381166000908152600a602052604081205461062e90611771565b600580546001600160a01b038381166001600160a01b0319831681179093556040519116919082907f8be0079c531659141344cd1fd0a4f28419497f9722a3daafe3b4186f6b6457e090600090a35050565b6001600160a01b03811660009081526008602052604081205461062e565b60606106627f000000000000000000000000000000000000000000000000000000000000000060066117a2565b60606106627f000000000000000000000000000000000000000000000000000000000000000060076117a2565b805460009080156112c2576112ac836110696001846122f0565b54600160301b90046001600160d01b0316610d3a565b60009392505050565b600033610628818585610e24565b600061062e6112e6610e83565b8360405161190160f01b8152600281019290925260228201526042902090565b6000806000806113188888888861184d565b925092509250611328828261191c565b50909695505050505050565b6001600160a01b0382166000908152600860205260409020805460018101909155818114610da1576040516301d4b62360e61b81526001600160a01b03841660048201526024810182905260440161069f565b60408051808201909152600080825260208201526001600160a01b0383166000908152600a60205260409020610d3a90836119d5565b6001600160a01b0384166113e75760405163e602df0560e01b81526000600482015260240161069f565b6001600160a01b03831661141157604051634a1406b160e11b81526000600482015260240161069f565b6001600160a01b0380851660009081526001602090815260408083209387168352929052208290558015610e1e57826001600160a01b0316846001600160a01b03167f8c5be1e5ebec7d5bd14f71427d1e84f3dd0314c0f7b2291e5b200ac8c7c3b9258460405161148491815260200190565b60405180910390a350505050565b610da1838383611a45565b6000816000036114af57506000919050565b600060016114bc84611aac565b901c6001901b905060018184816114d5576114d56122b8565b048201901c905060018184816114ed576114ed6122b8565b048201901c90506001818481611505576115056122b8565b048201901c9050600181848161151d5761151d6122b8565b048201901c90506001818481611535576115356122b8565b048201901c9050600181848161154d5761154d6122b8565b048201901c90506001818481611565576115656122b8565b048201901c9050610d3a8182858161157f5761157f6122b8565b04611b40565b60005b818310156115df57600061159c8484611b56565b60008781526020902090915065ffffffffffff86169082015465ffffffffffff1611156115cb578092506115d9565b6115d6816001612303565b93505b50611588565b509392505050565b6001600160a01b03811660009081526020819052604081205461062e565b816001600160a01b0316836001600160a01b0316141580156116275750600081115b15610da1576001600160a01b038316156116cf576001600160a01b0383166000908152600a60205260408120819061166a90610d8861166586611b71565b611ba5565b6001600160d01b031691506001600160d01b03169150846001600160a01b03167fdec2bacdd2f05b59de34da9b523dff8be42e5e38e818c82fdb0bae774387a72483836040516116c4929190918252602082015260400190565b60405180910390a250505b6001600160a01b03821615610da1576001600160a01b0382166000908152600a60205260408120819061170890610d7c61166586611b71565b6001600160d01b031691506001600160d01b03169150836001600160a01b03167fdec2bacdd2f05b59de34da9b523dff8be42e5e38e818c82fdb0bae774387a7248383604051611762929190918252602082015260400190565b60405180910390a25050505050565b600063ffffffff821115610fe1576040516306dfcc6560e41b8152602060048201526024810183905260440161069f565b606060ff83146117bc576117b583611bd7565b905061062e565b8180546117c890612251565b80601f01602080910402602001604051908101604052809291908181526020018280546117f490612251565b80156118415780601f1061181657610100808354040283529160200191611841565b820191906000526020600020905b81548152906001019060200180831161182457829003601f168201915b5050505050905061062e565b600080807f7fffffffffffffffffffffffffffffff5d576e7357a4501ddfe92f46681b20a08411156118885750600091506003905082611912565b604080516000808252602082018084528a905260ff891692820192909252606081018790526080810186905260019060a0016020604051602081039080840390855afa1580156118dc573d6000803e3d6000fd5b5050604051601f1901519150506001600160a01b03811661190857506000925060019150829050611912565b9250600091508190505b9450945094915050565b60008260038111156119305761193061235d565b03611939575050565b600182600381111561194d5761194d61235d565b0361196b5760405163f645eedf60e01b815260040160405180910390fd5b600282600381111561197f5761197f61235d565b036119a05760405163fce698f760e01b81526004810182905260240161069f565b60038260038111156119b4576119b461235d565b036106f5576040516335e2f38360e21b81526004810182905260240161069f565b6040805180820190915260008082526020820152826000018263ffffffff1681548110611a0457611a04612373565b60009182526020918290206040805180820190915291015465ffffffffffff81168252600160301b90046001600160d01b0316918101919091529392505050565b611a50838383611c16565b6001600160a01b038316611aa1576000611a6960025490565b90506001600160d01b0380821115611a9e57604051630e58ae9360e11b8152600481018390526024810182905260440161069f565b50505b610da1838383611d40565b600080608083901c15611ac157608092831c92015b604083901c15611ad357604092831c92015b602083901c15611ae557602092831c92015b601083901c15611af757601092831c92015b600883901c15611b0957600892831c92015b600483901c15611b1b57600492831c92015b600283901c15611b2d57600292831c92015b600183901c1561062e5760010192915050565b6000818310611b4f5781610d3a565b5090919050565b6000611b6560028484186122ce565b610d3a90848416612303565b60006001600160d01b03821115610fe1576040516306dfcc6560e41b815260d060048201526024810183905260440161069f565b600080611bca42611bc2611bb888611292565b868863ffffffff16565b879190611db6565b915091505b935093915050565b60606000611be483611dc4565b604080516020808252818301909252919250600091906020820181803683375050509182525060208101929092525090565b6001600160a01b038316611c41578060026000828254611c369190612303565b90915550611cb39050565b6001600160a01b03831660009081526020819052604090205481811015611c945760405163391434e360e21b81526001600160a01b0385166004820152602481018290526044810183905260640161069f565b6001600160a01b03841660009081526020819052604090209082900390555b6001600160a01b038216611ccf57600280548290039055611cee565b6001600160a01b03821660009081526020819052604090208054820190555b816001600160a01b0316836001600160a01b03167fddf252ad1be2c89b69c2b068fc378daa952ba7f163c4a11628f55a4df523b3ef83604051611d3391815260200190565b60405180910390a3505050565b6001600160a01b038316611d6257611d5f600b610d7c61166584611b71565b50505b6001600160a01b038216611d8457611d81600b610d8861166584611b71565b50505b6001600160a01b03838116600090815260096020526040808220548584168352912054610da192918216911683611605565b600080611bca858585611dec565b600060ff8216601f81111561062e57604051632cd44ac360e21b815260040160405180910390fd5b825460009081908015611f0b576000611e0a876110696001856122f0565b60408051808201909152905465ffffffffffff808216808452600160301b9092046001600160d01b031660208401529192509087161015611e5e57604051632520601d60e01b815260040160405180910390fd5b805165ffffffffffff808816911603611eaa5784611e81886110696001866122f0565b80546001600160d01b0392909216600160301b0265ffffffffffff909216919091179055611efb565b6040805180820190915265ffffffffffff80881682526001600160d01b0380881660208085019182528b54600181018d5560008d81529190912094519151909216600160301b029216919091179101555b602001519250839150611bcf9050565b50506040805180820190915265ffffffffffff80851682526001600160d01b0380851660208085019182528854600181018a5560008a815291822095519251909316600160301b029190931617920191909155905081611bcf565b6000815180845260005b81811015611f8c57602081850181015186830182015201611f70565b506000602082860101526020601f19601f83011685010191505092915050565b602081526000610d3a6020830184611f66565b80356001600160a01b0381168114611fd657600080fd5b919050565b60008060408385031215611fee57600080fd5b611ff783611fbf565b946020939093013593505050565b60008060006060848603121561201a57600080fd5b61202384611fbf565b925061203160208501611fbf565b9150604084013590509250925092565b60006020828403121561205357600080fd5b5035919050565b60006020828403121561206c57600080fd5b610d3a82611fbf565b60ff60f81b881681526000602060e08184015261209560e084018a611f66565b83810360408501526120a7818a611f66565b606085018990526001600160a01b038816608086015260a0850187905284810360c0860152855180825283870192509083019060005b818110156120f9578351835292840192918401916001016120dd565b50909c9b505050505050505050505050565b803560ff81168114611fd657600080fd5b60008060008060008060c0878903121561213557600080fd5b61213e87611fbf565b9550602087013594506040870135935061215a6060880161210b565b92506080870135915060a087013590509295509295509295565b600080600080600080600060e0888a03121561218f57600080fd5b61219888611fbf565b96506121a660208901611fbf565b955060408801359450606088013593506121c26080890161210b565b925060a0880135915060c0880135905092959891949750929550565b600080604083850312156121f157600080fd5b6121fa83611fbf565b915061220860208401611fbf565b90509250929050565b6000806040838503121561222457600080fd5b61222d83611fbf565b9150602083013563ffffffff8116811461224657600080fd5b809150509250929050565b600181811c9082168061226557607f821691505b60208210810361228557634e487b7160e01b600052602260045260246000fd5b50919050565b634e487b7160e01b600052601160045260246000fd5b808202811582820484141761062e5761062e61228b565b634e487b7160e01b600052601260045260246000fd5b6000826122eb57634e487b7160e01b600052601260045260246000fd5b500490565b8181038181111561062e5761062e61228b565b8082018082111561062e5761062e61228b565b6001600160d01b038181168382160190808211156123365761233661228b565b5092915050565b6001600160d01b038281168282160390808211156123365761233661228b565b634e487b7160e01b600052602160045260246000fd5b634e487b7160e01b600052603260045260246000fdfea2646970667358221220b465e5829906f786955a38f8f1132f6b51edaf5aaace36393846873c010c127964736f6c63430008140033dec2bacdd2f05b59de34da9b523dff8be42e5e38e818c82fdb0bae774387a724",
  "linkReferences": {},
  "deployedLinkReferences": {}
}